:020000022000DC
:106000000000042035E7020075E7020077E7020090
:1060100079E702007BE702007DE702000000000054
:10602000000000000000000000000000B1E60200D7
:1060300081E7020000000000D1E6020085E70200CF
:1060400035E80200C964020087E7020087E7020022
:1060500087E7020087E7020041C3020087E70200EA
:10606000BD6D0200D56D020087E7020087E70200E0
:1060700087E7020087E7020087E7020087E7020060
:1060800087E7020035E4020087E7020087E70200A5
:1060900087E7020087E7020087E7020087E7020040
:1060A00087E7020087E70200ED6D0200056E02003F
:1060B00087E7020087E70200000000000000000000
:1060C00087E7020087E7020087E7020051F4020039
:1060D00087E7020087E7020087E702008572020077
:1060E00087E7020087E7020087E702000000000060
:1060F0000000000087E7020000000000C9F4020071
:10610000000000000000000000000000000000008F
:10611000000000000000000000000000000000007F
:10612000000000000000000000000000000000006F
:10613000000000000000000000000000000000005F
:10614000000000000000000000000000000000004F
:10615000000000000000000000000000000000003F
:10616000000000000000000000000000000000002F
:10617000000000000000000000000000000000001F
:10618000000000000000000000000000000000000F
:1061900000000000000000000000000000000000FF
:1061A00000000000000000000000000000000000EF
:1061B00000000000000000000000000000000000DF
:1061C00000000000000000000000000000000000CF
:1061D00000000000000000000000000000000000BF
:1061E00000000000000000000000000000000000AF
:1061F000000000000000000000000000000000009F
:10620000F1EE103A43F08073E1EE103A704700BFB0
:1062100010B5054C237833B9044B13B10448AFF3E0
:1062200000800123237010BD0062002000000000E8
:10623000F021030008B5034B1BB103490348AFF33A
:10624000008008BD0000000004620020F02103006F
:10625000154B002B08BF134B9D46A3F5803A002138
:106260008B460F461348144A121A09F059FB0F4B7C
:10627000002B00D098470E4B002B00D098470020F1
:10628000002104000D000D48002802D00C48AFF397
:10629000008009F0EDFA2000290008F09DFA09F0CD
:1062A000D3FA00BF00000800000004200000000036
:1062B0000000000000620020808300200000000039
:1062C00000000000F8B56C4A6C4E11786C4D00234C
:1062D000336029B16B492888B1F80940844270D0F5
:1062E000694B1A7892B1694A2988B2F80500884248
:1062F0000CD192E80300664C0022206121756548AC
:106300001A7004F1100100F0CDFC00E0604C6389CC
:1063100040F2E24000FB03F000B9002000F0A6FDCF
:106320002B885C4801339BB22B8000F01FFD5A4B39
:106330005A4A1D78C1B2117025B3594D59482D786C
:1063400000683060002D63D100284FD000221A7001
:106350006368554D226823F07F4301242C7000F0C0
:106360006DFA524B524A1C701378002B42D14FF0F9
:10637000A0434021C3F80C151378B3FA83F35B09EB
:106380001370F8BD4B48007800283ED130680028D3
:106390002CD0434D2D78002DD8D04749037809786B
:1063A000002947D043F00803444903700B78316853
:1063B000002B38D00B7843F004030B703068117851
:1063C000C6E71370304ECA780F79B1F80100304C2F
:1063D0003178208142EA0722628180B2002932D1DD
:1063E00040F2E24300FB033000F040FD304A1378F6
:1063F000002BBCD04FF0A0434021C3F80815137800
:10640000B3FA83F35B091370F8BD2D483060C0E721
:106410002C490D78052D10D80B780133DBB20B70A9
:106420000028BAD1E2E70B7823F004030B70306840
:1064300011788DE703F0F703B6E700250D701D70A6
:106440000028AAD1D2E7114A2988B2F8050088426B
:1064500009D192E80300206121750E48337004F1E0
:10646000100100F01FFC238940F2E24003FB000012
:1064700000F0FCFCBAE700BF476500204C65002037
:10648000206500203C6500201F6500201865002065
:106490002465002068620020506500205C650020B3
:1064A0000D600020706500206C65002054650020A0
:1064B000006000200E6000206565002064650020FB
:1064C0000860002051650020F8B5A74BD3F80021E3
:1064D00022B100210122C3F800119A60A24BD3F827
:1064E0000C21002A00F003810024A04DC3F80C41C8
:1064F0002A784AB19E4B2C701A78002A40F0F88016
:10650000BDE8F84000F008BA01229A60D3F80034E0
:10651000002B00F0EC80974E3378002B00F01081B8
:106520003378954C03F0FF00002B00F094809349E2
:1065300023680F78924A13F807C01778BC4540F0DB
:10654000A880012840F287800F7892F801C01F448C
:106550007F78674540F09D8002287CD00F7892F8C4
:1065600002C01F44BF78BC4540F09380032872D01E
:106570000F7892F803C01F44FF78BC4540F0898033
:10658000042868D00F7892F804C01F443F79BC45B6
:106590007FD105285FD00F7892F805C01F447F791E
:1065A000BC4576D1062856D00F7892F806C01F4415
:1065B000BF79BC456DD107284DD00F7892F807C040
:1065C0001F44FF79BC4564D1082844D00F7892F865
:1065D00008C01F443F7ABC455BD109283BD00F78E7
:1065E00092F809C01F447F7ABC4552D10A2832D0A4
:1065F0000F7892F80AC01F44BF7ABC4549D10B28D6
:1066000029D00F7892F80BC01F44FF7ABC4540D1C7
:106610000C2820D00F7892F80CC01F443F7BBC455B
:1066200037D10D2817D00F7892F80DC01F447F7B0B
:10663000BC452ED10E280ED00F7892F80EC01F4404
:10664000BF7BBC4525D10F2805D00978D07B5A18CF
:10665000D27B90421DD1012116200027377008F00F
:1066600071FC484B4FF4B45043F001039847464B3C
:10667000464A474947481B6812680978006801265E
:106680002E7000F0DBF8444A1378DBB2B3425AD0E4
:1066900023685A78911CFF2929D833483F4ED0F8F7
:1066A0000C04585423680B44050A5D7023683C4D64
:1066B00019440932D2B2000C887032702B7883B141
:1066C000384B1B786BB12368374A1B781178C3F3BA
:1066D000800399420BD0354835491370002202706F
:1066E0000B702B78002B34D1324B01221A70F8BD7D
:1066F000314D2B4A2E8931481C7040F2E24106FB95
:106700000111012301F59671137000F089FB6B688C
:106710001D481E492A4A2E680E60C3F31703036002
:1067200005F110012748148000F01EF9697D254805
:1067300001F01F0100F012FB224800F013FBDFE61E
:106740000D4C2368A5E70A4917700B7000F094FB05
:106750009EE705F037FE1C4B024600210D201A6013
:1067600008F0F0FBC0E700BF001000406C6500209F
:10677000866500208465002068650020856500200E
:1067800074650020601D03006065002058650020CE
:106790005C650020706500205D6500205365002069
:1067A000666500200D6000206465002050650020B3
:1067B000656500205265002024650020C562020046
:1067C0002065002068620020486500200A4810B556
:1067D0004FF4E131044600F0BBFC02E00A2005F072
:1067E000FDFD204600F0D2FC0028F7D00349024806
:1067F000BDE8104005F08CBD90650020741D0300BD
:1068000008B50549054805F083FD4FF47A70BDE8E9
:10681000084005F0E3BD00BF681D0300906500203F
:1068200008B5044800F0C8FA034B002283F848205A
:1068300008BD00BF686200201C620020F0B4334C29
:106840000025C4F80052D4F85065002E47D12F4CD3
:106850002F4DC4F804050220C5F8800128600426E5
:1068600000252529C4F80C65C4F8445549D02629CB
:1068700033D0272947D00A29D4BF0818C81C4000A4
:10688000C5B22248234CC0F80855C0F854152168F9
:106890000325C0F800520D1F256001F8042C216863
:1068A000C2F307254D702168C2F307458D7021683A
:1068B000C2F30765CD70216804312160160E0025F2
:1068C00012020121C0F82465C0F81C25C0F83C352F
:1068D000C0F800510160F0BC70471A25D1E70C4E9A
:1068E0000227C6F88070BFF34F8FBFF36F8F01266A
:1068F000C4F8105125462661D5F81041002CFBD074
:10690000A5E70546BDE75025BBE700BF00100040E6
:1069100000E100E0686500201049114B0968114A48
:10692000C3F804150221C2F88010BFF34F8FBFF3E4
:106930006F8F0120C3F80002C2F88011116000229D
:10694000C3F810211A461861D2F81031002BFBD081
:1069500000210123C2F800115360704768650020D0
:106960000010004000E100E02DE9F04F00248BB062
:10697000CDE9074400F5F07305931D460994E31033
:1069800004F00702CB5C0134134103F00103252C12
:1069900005F8013FF3D10B46DE432531002513F8FE
:1069A000012B012A04D14219F41882F8BC410135A7
:1069B0008B42F4D1B94FC0F89C5200F2E11C00F1B7
:1069C00025050526A5F12501002319E0D0F89C42F4
:1069D00093FBF4F204FB1232024492F8BC210A70D9
:1069E000F21887FB02431344D417C4EB631303EB81
:1069F000C304013103EB8403A942A2EB030306D0D5
:106A0000C21892F8E121012AE0D10B70E8E701F108
:106A10002505654506F10106D4D1A14BDFF87CB20E
:106A200003901B1A029300F205230193059B009328
:106A300004E0DDE90032934200F02B81029AD51880
:106A40001A4612F8013F0092012BF2D1039B059FD9
:106A500003F124000026A0F12503002402E01346E0
:106A600083420ED05978A94203F10102F7D13CB913
:106A7000824206D013F8022FAA4201D00124EFE788
:106A800001262530B842E6D1002ED2D1039BDDF895
:106A90001490C3F8A05202E0019B9945C9D0029B13
:106AA00003EB090719F8013F012BF5D1039B0DF109
:106AB0001C0CE246CDF810C003F1FF384FF0000E79
:106AC0009C464346002003E00130252800F0DE808C
:106AD00013F8012FAA42F7D10EEBCE040EEB84047B
:106AE0006444014600F1250602E0B14200F0CB808B
:106AF0008BFB01230B44CA17C2EB631303EBC302E6
:106B000003EB8203CB1A0131E25CBA42EDD1984229
:106B1000A3EB000280F2B8800EF1010EBEF10C0F63
:106B20000AF8012B08F12508CBD1DDF810C09DF83B
:106B30002760022400219CF800301CF8012F9A42A3
:106B400008BF01210C2C41D09CF801209A4208BFBB
:106B500001210B2C3AD09CF802209A4208BF012157
:106B60000A2C33D09CF803209A4208BF0121092C3B
:106B70002CD09CF804209A4208BF0121082C25D073
:106B80009CF805209A4208BF0121072C1ED09CF8D2
:106B900006209A4208BF0121062C17D09CF8072036
:106BA0009A4208BF0121052C10D09CF808209A4277
:106BB00008BF0121042C09D09CF809209A4208BF83
:106BC0000121032C02D0B34208BF012101340D2C56
:106BD000B1D100297FF460AF039894220546C0F834
:106BE000A47200F5027008F09BFE9DF81CE09DF871
:106BF0001D009DF81E109DF81F209DF820709DF827
:106C0000213006F1820C0EF1820682304FF0050E23
:106C100045F826E08231062645F820608232823728
:106C20009DF822609DF823004FF0070E45F821E003
:106C3000823308214FF0090E45F82210823645F8BC
:106C400027E09DF824109DF825200A2745F8237099
:106C500082309DF826300B2745F82670823182322B
:106C60000C2645F8206082330E2045F8214045F877
:106C700022000F241021012045F8234045F82C1054
:106C80000BB0BDE8F08FC243253245E74FF0FF302F
:106C900022E700200BB0BDE8F08F00BFA7C867DD7A
:106CA00020FEFFFF30B400252B46DC1003F0070266
:106CB0000C5D44FA02F2D20703D54219013582F87D
:106CC000BC310133252BF0D100F2E1120B1D9A42A9
:106CD000C0F89C5203D200F2E513994232D30B78EC
:106CE00080F8E1314B7880F8E2318B7880F8E3313D
:106CF000D1F80330C0F8E431D1F80730C0F8E831FA
:106D0000D1F80B30C0F8EC31D1F80F30C0F8F031C9
:106D1000D1F81330C0F8F431D1F81730C0F8F83199
:106D2000D1F81B30C0F8FC31D1F81F30C0F8003268
:106D300091F8233080F8043291F8243080F805323D
:106D400030BC70474B1E00F5F070243113F8012F52
:106D500000F8012F8B42F9D130BC7047C0F8A8125F
:106D6000704700BF0023C0F8AC327047D0F8A812BB
:106D7000D0F8AC220F4B0A4483FB02139918D317A7
:106D8000C3EB611303EBC30103EB8103D31AC218F6
:106D9000C0F8AC3292F8E121012A08D0D0F89C1258
:106DA00093FBF1F201FB1233184490F8BC31184602
:106DB000704700BFA7C867DD704700BF034A044B98
:106DC0000021C2F840111B68184700BF0080004036
:106DD00088650020034A044B0021C2F840111B685B
:106DE000184700BF0090004088650020034A044B0C
:106DF0000021C2F840111B68184700BF00A00140E5
:106E000088650020044B054A1B680021C2F8401128
:106E100003B11847704700BF8C65002000B00140E7
:106E20000F4A104B30B4104C10604FF0006003223A
:106E3000C4F880014FF48035C3F80825C3F8401525
:106E400001220421C3F80453C3F80022C3F810152B
:106E50002060602184F81B1330BCDA601A60704730
:106E60008C65002000B0014000E100E0014BC3F858
:106E70004005704700B00140084B4FF00062C3F876
:106E80008020BFF34F8FBFF36F8F054B012200218E
:106E9000C3F84011DA605A60704700BF00E100E0BB
:106EA00000B00140407DFF2806D010B500F016FA72
:106EB000044618B1204610BD0020704707F00EFEB2
:106EC000204610BD407DFF280ED000B583B00DF1E7
:106ED000070100F057FA20B19DF8070003B05DF8F4
:106EE00004FB4FF0FF30F9E74FF0FF30704700BF71
:106EF000407DFF2811D000B583B001220DF10701BC
:106F000000F0F8F920B94FF0FF3003B05DF804FB52
:106F10009DF8070003B05DF804FB4FF0FF307047A9
:106F2000407DFF2801D000F08DBA7047407DFF28DA
:106F300001D000F0CDBA0020704700BFF8B506467A
:106F4000407DFF281CD017465AB10D46144600F06C
:106F50009FF92946224680B1707D00F01DFA241A5F
:106F600001D13846F8BD054407F0B8FD707D00F04A
:106F70008FF9294622460028EED13F1B3846F1E71B
:106F80000020F8BD0AB32DE9F043524991F81C6185
:106F900091F81D5191F81E7193B0994614467B1CCF
:106FA000AA1C8046B01C81F81C0181F81D2181F8C3
:106FB0001E3101A84222002108F0B2FCB9F1410FB4
:106FC00005D8002013B0BDE8F083422070478DF84B
:106FD00006608DF80E608DF82660721C40F2012666
:106FE000D2B2ADF81060DFF8F0C08DF81E20242674
:106FF00040F6083E6B1C8DF827208DF83120ADF847
:1070000004E08DF816608DF820608DF82460CDF8CE
:1070100018C004264FF0060C65F07F0540F20942C7
:107020004FF0010E98F81410ADF80C208DF81CE00C
:1070300005228DF81F608DF830608DF822C040F277
:1070400007568DF825C08DF82A5020464FF0030EC4
:1070500063F07F044FF0080C02234FF411658DF8A4
:1070600014108DF807308DF808308DF809308DF840
:1070700012308DF821308DF815208DF823208DF8F1
:107080002BE08DF82CC04FF00A0EADF82E504FF0CB
:10709000400C01A9ADF8286007258DF833308DF834
:1070A00040208DF84140422244F20204ADF838609D
:1070B0008DF83B308DF83A708DF834E08DF83CC097
:1070C0008DF83F50ADF8424008F006FC422013B066
:1070D000BDE8F083AC65002020010524A0F110007C
:1070E000FFF750BF70B50368184A5B6882B09342DF
:1070F0008DF8071024D10546407DFF281DD000F0F3
:10710000C7F80DF1070601243146224688B1687D93
:1071100000F042F9241A02D1012002B070BD0644E9
:1071200007F0DCFC687D00F0B3F831462246002809
:10713000EDD1C4F1010002B070BD002002B070BDFD
:1071400001220DF10701984702B070BD3D6F0200AA
:10715000437DFF2B00D07047094B1A78002AFAD1E3
:1071600010B500F1100442750649204601221A703C
:1071700000F07EF821460448BDE8104000F05AB8FF
:10718000A8650020841D0300AC650020407DFF2819
:1071900007D000B583B000F07BF820B103B05DF8F4
:1071A00004FB00207047019007F098FC019803B0A1
:1071B0005DF804FB01B900B1704700B583B06946C2
:1071C00000F07CF8009BB3F5966F02D003B05DF839
:1071D00004FB00F05BF8F9E730B4084B084A4FF4C1
:1071E0007F4102F10805002430324FF47A70998211
:1071F0001D60C3E901401A6130BC704790650020F2
:10720000941D030090F850310B2B0CD871B103F191
:10721000480210B45C1C80F8504140F822105DF820
:10722000044B184670470023184670470B46184613
:10723000704700BF70B504460E68B4F81821B4F862
:107240001A31656936689B1A08469BB294F81C117E
:107250002A44B04758B1B4F818216369104480B289
:10726000A4F81801588094F81C211A71012070BDEF
:1072700010B504460248FFF7C5FF207110BD00BFDE
:10728000AC650020002001F0BDBB00BF07F0D2BDFF
:1072900010B5044600F050FD08B9002010BD00F004
:1072A00053FD0028F9D1044B4FF4367202FB04342D
:1072B000207900F0010010BDC0670020064A4FF49D
:1072C000367303FB00230833186808609A889B799B
:1072D0008B718A80704700BFC067002008B5044AE0
:1072E0004FF4367303FB0020103000F07FFB08BD25
:1072F000C06700202DE9F8434FF4367404FB00F416
:107300001E4E4FF6FF73074604F110054FF6FE7050
:10731000824288BF1A463544284692B200F090FB5C
:10732000804600F009FD10B94046BDE8F88300F042
:107330000BFD81460028F7D13444E378002BF3D0CD
:10734000284600F06BFB3F28EED9E178484600F074
:10735000EFFE0028E8D0284600F060FB3F2804D864
:10736000E178484600F0F4FEDEE7054AE178484659
:1073700002EBC712402300F0FBFED5E7C0670020F8
:1073800040670020034A4FF4367303FB002010309F
:1073900000F0C0BBC06700202DE9F8434FF43675FC
:1073A00005FB00F5244F4FF6FF73064605F1240454
:1073B0004FF6FE70824288BF1A463C4492B2204685
:1073C00000F0E2FB8046204600F010FB3F2802D888
:1073D0004046BDE8F88300F0AFFC0028F8D000F08C
:1073E000B3FC81460028F3D1204600F0FFFA0028C4
:1073F000EED03D444846A97800F09AFE0028E7D038
:107400000E4B402202EBC6161E442046314600F0C9
:1074100017FB034660B13246A978484600F0A8FE43
:107420000028D5D1064B1B68DB07D1D500BECFE7BE
:10743000A97800F08DFECBE7C067002040670020F0
:10744000F0ED00E02DE9F041804600F075FC10B948
:107450000020BDE8F08100F077FC07460028F7D156
:107460004FF4367404FB08F4164E04F12405354439
:10747000284600F0BBFA0028EAD026443846B17806
:1074800000F056FE0028E3D040220F4B02EBC81854
:1074900098442846414600F0D3FA044660B142467B
:1074A000B1783846234600F063FE40B9074B1B68AD
:1074B000DB07CDD500BECCE7B17800F049FE204611
:1074C000C7E700BFC067002040670020F0ED00E084
:1074D00008B5044A4FF4367303FB0020243000F053
:1074E0009DFA08BDC067002070B5204C82B0002115
:1074F0004FF4367220460D4608F012FAFF234FF47F
:10750000E132082604F138016371A26001234FF4CF
:107510008072009504F11000A67300F02BFA144B52
:107520001B78C3F38003009304F59C7101234FF48F
:10753000807204F1240000F01DFA04F50E710120A0
:1075400005F0B2F904F522710646012005F0ACF908
:1075500006B130B9074B1B68DB0700D500BE02B08F
:1075600070BDC4E90756C4E90C05F8E7C067002000
:1075700010600020F0ED00E038B5094C206A256B62
:1075800020B105F07FFD0023C4E907332DB1284663
:1075900005F078FD0023C4E90C33012038BD00BF9D
:1075A000C067002010B50E4C0E4823780022026000
:1075B0000271DA0709D59B070DD521780A48C1F376
:1075C0008001BDE8104000F08DBB103000F06AFB78
:1075D00023789B07F1D4044800F064FBEDE700BF7B
:1075E00010600020C0670020E46700202DE9F04112
:1075F0004B79022B82B004D00025284602B0BDE8AA
:10760000F0818B79022BF7D1364EB3782BB1364B04
:107610001B68DB07F0D500BEEEE78B7833700C7883
:107620000C4407466378242B4FF009050BD1082A38
:1076300002D822E0AA4220D323781C441D44637858
:10764000242BADB2F6D0052B38D0042B15D163799D
:107650000A2B12D1254A94F80080019202230132AC
:107660000092384604EB08011A4600F09DFC002801
:10767000CDD00E3518FA85F5ADB200F05DFB0028CF
:10768000BBD000F061FB04460028B6D1F378002B94
:10769000B3D0174800F0C2F93F28AED9F1782046A0
:1076A00000F046FD0028A8D0114800F0B7F93F28A7
:1076B000F17811D8204600F04BFD9EE72146384670
:1076C00000F012FD0028A2D0A378737023781C4428
:1076D0001D44ADB26378B8E7064A2046402300F067
:1076E00047FD8AE7C0670020F0ED00E0C267002098
:1076F000D06700204067002038B5137803F060039E
:10770000202B01D0002038BD294C938825789D423C
:10771000F8D15378203B032BF4D8DFE803F00815A9
:107720001E02012936D0032939D0012038BD012994
:107730000CD00329F9D11F4B002BF6D01E49002095
:10774000AFF30080012038BD0129EED11146072397
:10775000194A00F0B5FD012038BD01291AD00329CE
:10776000E3D1164B55881B781548257113F0040199
:107770001CBFE94301F0010100F0B4FA114B002BEA
:10778000D3D0C5F3400205F001010020FFF712FD40
:10779000012038BD114600F07BFD012038BD0A4BA9
:1077A000002BC2D051880020AFF30080BDE700BF9E
:1077B000C067002000000000C867002010600020A3
:1077C000E4670020B5710200000000002DE9F047D9
:1077D0005F4CE2788A420D4680461F4659D15D4E85
:1077E0009AB2314604F1100000F0CEF95A4BC3B101
:1077F0006379FF2B15D0A7B106EB070A04F1100936
:1078000002E056450DD0637916F8012B9A42F8D163
:10781000484600F0FBF80028F3D16179AFF300800F
:10782000EFE74E4B23B14E4800F0F0F8002863D04C
:1078300000F082FA002862D1A3789D4202D0012094
:10784000BDE8F087474B13B10020AFF3008000F094
:1078500073FA00282BD1444800F0C8F80028EED174
:10786000002FECD017F03F07E9D1A178404600F097
:107870005FFC0028E3D0A17840463B463A4600F042
:1078800077FC0028DBD1394B1B68DA070CD500BE2A
:10789000D6E7A3788B42D5D0344B1B68DB0703D5E2
:1078A00000BE0020BDE8F0870020BDE8F08700F0B2
:1078B0004BFA05460028CED12B4800F097F8002857
:1078C000C9D0A178284600F033FC0028C3D040225C
:1078D0002749254800F0B4F8034600282CD0284654
:1078E000234AA17800F044FC0028A8D11F4B1B6854
:1078F000D907B0D500BEAEE7AFF3008098E700F03F
:1079000023FA0646002897D1E378002B94D0144838
:1079100000F084F83F288FD9E178304600F008FC69
:10792000002889D00E4800F079F83F28304607D863
:10793000E17800F00DFC7FE7A17800F009FC8AE710
:107940004023044AE17800F013FCA37875E700BFF8
:10795000C067002040670020000000000000000019
:10796000D067002000000000E4670020F0ED00E098
:10797000806700202DE9F041B2F5004F9DF8188096
:1079800030D80446C0681E460F46154618B14FF061
:10799000FF3105F0CBF9206918B14FF0FF3105F048
:1079A000C5F9E288E068276066F30E02C2F307219A
:1079B000002368F3C711E2806381A580E171238110
:1079C00018B11A46194604F095FD206938B1002314
:1079D0001A46194604F08EFD0120BDE8F081012011
:1079E000BDE8F0810020BDE8F08100BF0389428935
:1079F000808892B29BB2934236BFC2EB40029B1A80
:107A00009B189BB2984228BF184670470289438949
:107A10009BB2981AB0FA80F04009704703894289F6
:107A2000808892B29BB2934236BFC2EB40029B1A4F
:107A30009B189BB2984286BFC01A80B20020704744
:107A40002DE9F843054600690E46174618B14FF078
:107A5000FF3105F06BF92B896989A8889BB289B23F
:107A60008B4236BFC1EB40045C1AE418A4B2002C70
:107A70004AD0A04206D283422CBF191A191889B2E3
:107A800069810446BC4228BF3C468842A4B203D860
:107A9000091A89B28842FBD9EA882B68401AC2F3D6
:107AA0000E0887B21FFA88F2BC4202FB013125D9C9
:107AB00017FB08F91FFA89F94A46304607F00CFF10
:107AC000E21B12FB08F206EB090092B2296807F0EC
:107AD00003FF6A89A88892B211198BB29A4215D90C
:107AE00040001B1A9BB228696B8120B100231A4603
:107AF000194604F0FFFC2046BDE8F88302FB04F2BF
:107B0000304607F0E9FEE4E769898BB24000834222
:107B1000E9DBE6E738B5054600690C4618B14FF0D9
:107B2000FF3105F003F929896B89AA8889B29BB2D4
:107B3000994236BFC3EB4200C81A401880B200B366
:107B4000824209D291422CBF8B1A8B189BB29A4267
:107B50006B8103D89B1A9BB29A42FBD9EA882968A9
:107B6000C2F30E02204602FB031107F0B5FE01240A
:107B7000286920B100231A46194604F0BBFC2046B0
:107B800038BD0446F4E700BF2DE9F0471446002A4B
:107B90004FD00546C0680F4618B14FF0FF3105F0D1
:107BA000C5F8EA792E896989AB88D209B6B289B25B
:107BB00042D18E4236BFC1EB4301711A891989B295
:107BC000994252D2591A89B28C42E88828BF0C4691
:107BD000C0F30E08B342304603D8C01A80B29842B0
:107BE000FBD21B1A2A681FFA83F9A14508FB002063
:107BF00047D219FB08FA1FFA8AFA5246394607F0AB
:107C00006BFEA4EB090212FB08F207EB0A0192B229
:107C1000286807F061FEA3199BB2AA88B3424FEA15
:107C2000420201D3934201DB9B1A9BB2E8682B818D
:107C3000F8B92046BDE8F087E8889C42C0F30E08FA
:107C40000FD28E4223D3721A92B25800224482423B
:107C5000C0DBCE18361BB6B2B14220D9361AB6B246
:107C6000B8E7E41A08FB0477B3B9E86800240028F1
:107C7000DFD000231A46194604F03CFC2046BDE83C
:107C8000F08708FB04F2394607F026FEC3E75800E8
:107C9000421A324492B2D9E70E461C4698E7B042E7
:107CA00098DCDBE710B50446C06818B14FF0FF312F
:107CB00005F03CF8206918B14FF0FF3105F036F8B7
:107CC000E06800236381238118B11A46194604F045
:107CD00011FC206920B100231A46194604F00AFC61
:107CE000012010BD38B5C379B1EBD31F1FD00446B6
:107CF000C0680D4618B14FF0FF3105F017F8206944
:107D000018B14FF0FF3105F011F8E379E06865F341
:107D1000C713E37120B100231A46194604F0EAFBA9
:107D2000206920B100231A46194604F0E3FB012024
:107D300038BD00BF704700BF024B5878003018BFF5
:107D400001207047A06A0020024B1878C0F3800021
:107D5000704700BFA06A00202DE9F0434378023B42
:107D600085B005460E46042B0CD8DFE803F0495DCC
:107D7000037E3F00844B1A78D70715D51A7842F056
:107D800004021A70814B18688EB933464FF0FF32E7
:107D9000294604F0AFFB003018BF0120F0B97C4B3E
:107DA0001B68DB0700D500BE05B0BDE8F08304AA60
:107DB000002342F80C3D294604F0ACFD019B43B181
:107DC000744B4FF080525A6040BFBFF34F8FBFF3E8
:107DD0006F8F003018BF01200028E0D0324669784C
:107DE0002878FFF7A7FF05B0BDE8F0836A4A13784B
:107DF0000133DBB21370654B1868002ED7D1C4E78E
:107E0000614B1A786FF300021A701A7800216FF331
:107E100041021A7059701A7861F382021A705B4B32
:107E20001868002EC3D1B0E75C4FDFF87491397841
:107E3000DFF87081002423460AE0D8F8003013EB05
:107E400044130AD10134E4B24A1DA242234615DB91
:107E50008C42F2D35B1A09EB4313DB69002BF1D0A0
:107E60006968287898473978ECE7474B1A78D4073F
:107E70009AD51A786FF382021A7083E7424C2378FE
:107E800058072FD5237841496FF3820323702B784D
:107E90008DF8043005220023CDF80A30CDF80630E5
:107EA000ADF80E3008688DF80520002E59D004AAD0
:107EB00001A942F8103D04F02DFD009B43B1354B64
:107EC0004FF080525A6040BFBFF34F8FBFF36F8FA8
:107ED000003018BF012000284DD12D4B1B68D90759
:107EE00000D500BEE378DA077FF55EAF274A2B782E
:107EF000696810688DF8043003220023CDF80A3039
:107F0000CDF80630ADF80E3002918DF80520F6B1AF
:107F100004AA01A942F8103D04F0FCFC009B43B107
:107F20001C4B4FF080525A6040BFBFF34F8FBFF3DE
:107F30006F8F003018BF012000283FF430AF324669
:107F40009DF805109DF80400FFF7F4FE2CE733467A
:107F50004FF0FF3201A904F0CDFA003018BF012024
:107F6000EAE733464FF0FF3201A904F0C3FA0030CC
:107F700018BF0120AFE732469DF805109DF80400B8
:107F8000FFF7D8FEAEE700BFA06A0020DC6A002041
:107F9000F0ED00E000ED00E0E06A00209C6A0020C7
:107FA000C81D0300986A00202DE9F84F0A9F002A97
:107FB0004CD090464A78052A0C460ED1CE7806F071
:107FC0000306B34209D18A7802F07F02082A0DD94C
:107FD000204B1B68DA0700D500BE1E4B1B68DB0771
:107FE00002D40020BDE8F88F00BEFAE7DFF868B0E1
:107FF000DFF868A09BF8009000250EE06278052A63
:10800000EBD1E27802F00302B242E6D1A27802F0AC
:108010007F02082ADCD89BF800909AF80210002210
:10802000204601F0C3F80028D2D04846214600F08F
:10803000CDFA0028D1D0A278D30916BF0B9B3A7095
:108040001A702278013545451444D7D10120BDE886
:10805000F88F00BFF0ED00E011600020A06A002062
:1080600030B51E4D85B00824002302900193039182
:108070008DF805402868144682B9134601A94FF0CF
:10808000FF3204F037FA003018BF0120E0B9144B7A
:108090001B68DB0700D500BE05B030BD04AA01A9EE
:1080A00042F8103D04F036FC009B43B10D4B4FF0FD
:1080B00080525A6040BFBFF34F8FBFF36F8F0030C5
:1080C00018BF01200028E2D022469DF805109DF837
:1080D0000400FFF72FFE05B030BD00BFDC6A0020B2
:1080E000F0ED00E000ED00E038B58B7803F07F03A1
:1080F000082B06D90B4B1B68DB0700D500BE002000
:1081000038BD094A094B0C46204691781D7800225B
:1081100001F04CF80028EDD021462846BDE8384053
:1081200000F054BAF0ED00E0A06A002011600020D9
:10813000CB09263301F07F010348044A03EB4101D8
:108140000844116800F0E8BFA06A0020D86A002047
:10815000CB09263301F07F010348044A03EB4101B8
:108160000844116801F004B8A06A0020D86A002011
:1081700038B5154C01F07F0504EB450404EBD11430
:108180002034A079C00706D5104B1B68DA0700D54C
:1081900000BE002038BDA5790D4845F001050078E6
:1081A000A57100F005FB0028F4D1A379074A60F31C
:1081B0000003A371A37960F38203A3711368DB0743
:1081C000E7D500BE38BD00BFA06A0020F0ED00E09A
:1081D00011600020054B01F07F0203EB420303EB2B
:1081E000D11191F8260000F001007047A06A00202C
:1081F00010B50C4B18780C4600F0DCFB0A4904F073
:108200007F0301EB430101EBD41191F8263043F0D9
:10821000020381F8263091F8263043F0010381F8FB
:10822000263010BD11600020A06A0020054B01F02F
:108230007F0203EB420303EBD11191F82600C0F358
:1082400040007047A06A002010B50F4B18780C460C
:1082500000F04AFA0D4904F07F0301EB430101EB02
:10826000D41191F826306FF3410381F8263091F84C
:1082700026306FF3000381F8263091F826306FF333
:10828000820381F8263010BD11600020A06A002012
:108290000A4630B4094C496805461068234603C3B2
:1082A0000023C4E9023392F900209A422846ACBF69
:1082B000802119461A4630BCFFF75ABF246B0020B4
:1082C000F0B50E462B4C496807463068A26025463B
:1082D00003C50021E181F588AB4228BF2B4683B05E
:1082E000A381ADB13BB3002A3DD094F90000402BEF
:1082F00028BF402300282CDB1F4A3846FFF738FFF1
:1083000098B91E4B1B68DB0712D500BE03B0F0BD49
:1083100096F90030002BACBF8021002138462B4657
:108320002A46FFF725FF0028EBD0012003B0F0BD5F
:10833000002003B0F0BD94F90020002AACBF19461C
:1083400080211A463846FFF713FF0028D9D00120B4
:10835000ECE71146084801931A4607F0BDFA064AB1
:10836000019B8021EEE7054B1B68D907E0D500BED5
:108370001046CBE7246B0020E46A0020F0ED00E01B
:10838000F0B5334CBFF35B8F014604F590730125C4
:10839000D3E84F2FC3E8405F0028F9D1BFF35B8FCC
:1083A00012F0FF0F48D1082929D04E01A21954F824
:1083B00006C028489388284F01F5947601EB810E7A
:1083C00050F82660D2889A1A93B2B6B200EB8E02A9
:1083D00009B2B34228BF3346C2F800C707EB810099
:1083E000C2F8043747F82150BFF36F8FBFF34F8FA8
:1083F0001A4B984218D0043B984215D0F0BD154B4B
:10840000D3F8C024D1030FD494F80B1161B11449EF
:10841000D4F80001C3F8A007C3F8A4270D60BFF388
:108420006F8FBFF34F8FF0BD0023BFF35B8F84F8D6
:108430002031BFF35B8FF0BD0A4B0B485A68C2F383
:108440000802003218BF0122BDE8F040FFF708BE65
:10845000386B0020007002402870024050700240CB
:108460004870024000ED00E0E1840200174BBFF3CA
:108470005B8F01460122D3E84F0FC3E84C2FBCF1BC
:10848000000FF8D1BFF35B8F10F0FF0F14D10A601B
:10849000BFF36F8FBFF34F8F0D4B994203D0043B57
:1084A000994200D070470B4BBFF35B8F002283F8DB
:1084B0002021BFF35B8F7047074B08485A68C2F30F
:1084C0000802003218BF0122FFF7CABD586C002015
:1084D00050700240386B002000ED00E06D84020017
:1084E000F0B5334CBFF35B8FC1B204F59073012636
:1084F000D3E84F2FC3E8406F0028F9D1BFF35B8F5B
:1085000012F0FF0F47D1082928D04D01621954F805
:1085100005E028489388DFF8B0C001F5947550F85D
:108520002570D2888D009A1A93B2BFB26A1800EBF8
:108530008202BB4228BF3B46C2F800E76544C2F84E
:1085400004374CF82160BFF36F8FBFF34F8F1A4B86
:108550009D4218D0043B9D4215D0F0BD154BD3F879
:10856000C024D1030FD494F80B1161B11349D4F88E
:108570000001C3F8A007C3F8A4270E60BFF36F8FF4
:10858000BFF34F8FF0BD0023BFF35B8F84F8203122
:10859000BFF35B8FF0BD0A4B0A485A68C2F308026A
:1085A000003218BF0122BDE8F040FFF759BD00BFFF
:1085B000386B00200070024050700240487002404A
:1085C00000ED00E0E18402002870024070B48A7877
:1085D0008C88414EC97802F07F03D50905EB430032
:1085E00006EB001001F00301C4F30A040129048121
:1085F0002BD0012101FA03F4BDB138480233994070
:10860000C0F80413D0F810352343C0F81035334BAD
:1086100042F48071C3F81825C3F80C15BFF36F8FAF
:10862000BFF34F8F012070BC70472C4803F10C063C
:10863000B140C0F80413D0F8141503F594730C433B
:10864000C0F8144540F82350E1E7082B08D0244B2C
:10865000186810F00100E6D000BE002070BC704722
:10866000EDB9B6F818311BB11C4B8022C3F81C259C
:108670001A4A0023C2F85031D2F8003313F4001321
:1086800008BFC2F85431154B4FF44012C3F804230D
:10869000D3F8142542F48072C3F81425BEE7B6F867
:1086A00008210E4B0021C3F82C1112B18022C3F80F
:1086B0001C250A4AD2F8003313F4001308BFC2F88D
:1086C0005431064B074AC3F80423D3F8102542F46B
:1086D0008072C3F81025A1E7386B002000700240BB
:1086E000F0ED00E00008200001F07F02082A70B4DD
:1086F0004FEAD11128D0012303FA02F0C043B1B1EF
:10870000294C951CAB40C4F80833D4F81055274BBE
:108710002840C4F8100501EB420103EB01110023CE
:10872000CB72BFF36F8FBFF34F8F70BC70471E4C7F
:1087300002F10C05AB40C4F80833D4F814551B4BB8
:108740002840C4F81405E6E7184B03EB0110002499
:10875000A0F808411448D1B14FF40064C0F80843B0
:10876000D0F8104524F48074C0F81045B3F81841CF
:10877000B3F808510C48EC424FF0000608BF4FF424
:108780000014C0F81C6508BFC0F80843C3E74FF4E5
:108790008014C0F80843D0F8144524F48074C0F85D
:1087A0001445C0F85011E1E700700240386B00201A
:1087B00001F07F004FEAD11CF0B50CEB4005744E80
:1087C0002D01771985B0FC7A4CB1724B1C6814F0FE
:1087D000010401D000BE0024204605B0F0BD04F025
:1087E000FF0E7251BB80A7F806E0002843D1002B92
:1087F00057D0BCF1000F00F08E8006EB401100EB6B
:108800008003CD8A8A8A0C8B0969521B9B0092B225
:1088100003F1804303F51C33A24228BF22465E4D7C
:10882000C3F8001600B2C3F804265C4BBFF35B8F9D
:1088300005EB80010122D3E84F4FC3E8472F002FFB
:10884000F9D1BFF35B8FE4B2002C40F0908045F883
:108850002020BFF36F8FBFF34F8F514B994202D04F
:10886000043B994219D1BFF35B8F002386F8203176
:10887000BFF35B8F11E0BCF1000FBED106EB4016D9
:108880000123F372BFF36F8FBFF34F8FB37A23B11E
:10889000F37A03F0FF04002B74D10124204605B0C5
:1088A000F0BD404AD2F88024C2F3C0126245A0D085
:1088B0003D4D6A688DF80810C2F3080100314FF48D
:1088C000E06218BF012101A803938DF80930ADF8CB
:1088D0000420FFF741FABFF35B8F06F59072012386
:1088E000D2E84F1FC2E8403F0028F9D1BFF35B8FA9
:1088F000CCB2002C38D12A4A1360BFF36F8FBFF37C
:108900004F8F1C46BFF35B8F204686F82011BFF3C4
:108910005B8F05B0F0BD0123204AF372BFF35B8F7C
:10892000D2E84F4FC2E8413F0029F9D1BFF35B8F36
:10893000E4B26CB91D4A1360BFF36F8FBFF34F8F62
:10894000BFF35B8F86F820C11C46BFF35B8F43E704
:10895000154B16495A681648C2F30802003218BF70
:108960000122FFF77DFB37E76A680D49F3E70E4BFD
:108970000F485A68C2F30802003218BF0122FFF7FD
:108980006FFB29E786F80AC0FFF7FAFC24E700BF6F
:10899000386B0020F0ED00E004700240586C0020BD
:1089A000507002400070024000ED00E04C70024048
:1089B0006D84020011F07F0008B512D008280BD09A
:1089C0000E4B41F48072C909C3F8182504D10C4B31
:1089D00003EB40139A7A62B9BFF36F8FBFF34F8FE7
:1089E00008BD064B01225A65BFF36F8FBFF34F8F4F
:1089F00008BD9972FFF7C4FCEEE700BF00700240AB
:108A0000386B00202DE9F04FA54BA64CD3F800039E
:108A100000238BB01E461F46012520FA03F11A19C8
:108A2000C9074FEA820209D5116839B105FA03F185
:108A300017600E43BFF36F8FBFF34F8F0133192BB6
:108A4000EBD1F20700F13582974D330508D5944BF1
:108A5000D3F8A83601229BB2A5F8163185F81C215F
:108A6000B70206F4800424D58D4BD3F81425D00525
:108A700040F1FC81002C00F0A182D3F80024D20741
:108A800040F19C82D3F81035DA0540F1FB8195F86E
:108A90001C3107AF002B40F0BD82814BD3F820354D
:108AA000089338464FF440730121ADF81C30FFF7AE
:108AB00053F904B37A4AD2F8004440F201732340D8
:108AC000C2F80034E30500F15682670510D5744BF7
:108AD0000122C3F808259A65D3F8002312F4001286
:108AE00008BFC3F854216E4B4FF40012C3F804239F
:108AF000A00500F1358231023DD5694BD3F880C421
:108B0000D3F88414D3F888E4D3F88C74D3F8908421
:108B1000D3F89444D3F89804D3F89C245FFA8CF3E8
:108B20005FFA80FCD0B25A06C9B25FFA8EFEFFB27D
:108B30005FFA88F85FFA84F901D105291BD0002477
:108B4000224668F3070263F3070461F30F2469F315
:108B50000F226EF317446CF3174260F31F6267F342
:108B60001F644FF4C063012107A8CDE90842ADF8A6
:108B70001C30FFF7F1F84D4B3340002B40F0918152
:108B8000DFF82491464F4D46CA4609F590780024F7
:108B90001DE02B44DA7A002A00F0D781DA88AAF89F
:108BA00004200022DA72D98809914FF4E063012190
:108BB00007A88DF820B08DF82120ADF81C30FFF704
:108BC000CBF8BBF1080F47D001340AF1200A04F1B9
:108BD0000C0326FA03F3DB075FFA84FBF1D504EB01
:108BE000840307EB8303DAF80020D3F80807630156
:108BF00012FA80F2E918CAF80020CA8880B202444A
:108C000092B2082CCA80C4D0BAF808208242C0D1DF
:108C1000CA88BAF804109142BBD9BBF1000FD0D179
:108C20000122BFF35B8FD8E84F3FC8E8412F0029EE
:108C3000F9D1BFF35B8F13F0FF0F40F052821C4954
:108C40000A60BFF36F8FBFF34F8FBFF35B8F85F861
:108C50002031BFF35B8FB7E7164B3340002B00F09A
:108C600002810F4BD3F86C240192C3F86C24BFF33C
:108C70006F8FBFF34F8F16F4806600F06E81D3F8CC
:108C80008024D3F8803483F08003C3F3C0130593AA
:108C9000C2F3C0130493DFF808A00024A84613E031
:108CA00000700240409C0010386B0020FCFB1F004D
:108CB0004C70024000040001002C00F0F281072EED
:108CC00052D0013409F120090199E14004EB8403F9
:108CD000C9070AEB830308EB4412E6B2ECD5D3F8DC
:108CE0000816D9F81070C9B20F44C9F81070D08AAC
:108CF000014489B2D182A849D08AB9F814506118C8
:108D00008900854202914FF0010C66F07F010391CA
:108D10004FF4E06B4FF0000E614607A840F2B480BC
:108D2000D18AB9F81820C3F800766D1AADB2954211
:108D300028BF1546994AC3F80456BFF35B8FD2E8A3
:108D40004F3FC2E841CF0029F9D1BFF35B8F13F049
:108D5000FF0F40F0ED80029BC3F800C0BFF36F8FA0
:108D6000BFF34F8F072EACD1019BDB03454601D4E7
:108D7000059B43B1EB7A23B1EB88AA889A4200F2B3
:108D800071810123AB72019B9F030BD595F82B30AA
:108D900023B1EB8CAA8C9A4200F28881012385F8DA
:108DA0002A30019B5E030DD595F84B3033B1B5F8F1
:108DB0004630B5F844209A4200F27D81012385F8BF
:108DC0004A30019B1C030DD595F86B3033B1B5F8D3
:108DD0006630B5F864209A4200F27E81012385F85E
:108DE0006A30019BD8020DD595F88B3033B1B5F8B8
:108DF0008630B5F884209A4200F23881012385F844
:108E00008A30019B99020DD595F8AB3033B1B5F896
:108E1000A630B5F8A4209A4200F22D81012385F8EE
:108E2000AA30019B5A020DD595F8CB3033B1B5F875
:108E3000C630B5F8C4209A4200F22281012385F899
:108E4000CA30019B1B020ED595F8EB30002B00F0C9
:108E5000F380B5F8E630B5F8E4209A4240F2EC80B1
:108E60000720FFF78DFA0BB0BDE8F08FD3F810257F
:108E7000D1053FF50CAE95F821211AB94FF4001237
:108E8000C3F8082307AF08E6D38A09939DF80C308E
:108E9000ADF81CB08DF820308DF821E0FEF75CFFB6
:108EA0000DE70023BFF35B8F85F82031BFF35B8FA5
:108EB00066E63B4B3B4A3C4D3C4800240127C2F848
:108EC0001475C2F81075546094625C609C629C607A
:108ED000DC62DC601C631C615C635C619C639C61A4
:108EE000DC63DC611C6454629464C2F85841D2F8BB
:108EF0000034D2F800140B43C2F80034D2F8003327
:108F0000C2F808332146C2F8040328464FF492728F
:108F100006F006FD40234FF48072394607A82B83E4
:108F20002B818DF82040ADF81C20FEF715FF8CE555
:108F30001F4B20485A680299C2F30802B2EB0E0296
:108F400018BF0122FFF78CF8B9E61B4B1B68D80746
:108F500089D500BE0BB0BDE8F08FCDE904669AE676
:108F600000220523012107A88DF81C208DF81D3053
:108F7000FEF7F2FEBFE50121C2F82C150423002202
:108F800007A88DF81C208DF81D30FEF7E5FE67055B
:108F90007FF5AEAD9BE500BF019C0010586C002032
:108FA0000470024000700240386B00200514C001BC
:108FB00000ED00E06D840200F0ED00E04F4BBFF3E8
:108FC0005B8F0122D3E84F1FC3E8402F0028F9D15F
:108FD000BFF35B8F11F0FF0F32D1494BD3F8C004C0
:108FE000C70352D495F80B1101F0FF07002967D091
:108FF0004449D5F80071C3F8A077C3F8A4070A6004
:10900000BFF36F8FBFF34F8FD3F81035D8053FF5FF
:109010003EAD37E7B5F816310993002285F81C21DB
:1090200088234FF4E06238460121ADF81C20ADF8EA
:109030002030FEF791FE30E5012385F8EA3012E793
:10904000314B32485A68C2F30802003218BF01227D
:109050000821FFF705F82A4BD3F81035DB053FF55B
:1090600016AD0FE70020FFF78BF98CE60420FFF721
:1090700087F9019BC6E60520FFF782F9019BD1E63F
:109080000620FFF77DF9019BDCE6BFF35B8F85F8D7
:109090002011BFF35B8FD3F81035DF053FF5F7AC38
:1090A000F0E6049900293FF40CAE18E60120FFF722
:1090B00067F9019B76E60220FFF762F9019B81E6E2
:1090C000BFF35B8F85F82071BFF35B8FD3F810354A
:1090D000D9053FF5DCACD5E60320FFF751F9019B3C
:1090E00080E6094B0A485A680A49C2F3080200326E
:1090F00018BF0122FEF7B4FF66E500BF586C0020E0
:10910000007002404870024000ED00E0E18402007F
:109110006D8402004C700240F8B5037813F001042E
:1091200005D10678C6F3800626B12046F8BD002496
:109130002046F8BD0F4605464FF0FF31384603F094
:10914000F5FD2A7812F001040FD12B785B0704D4C7
:109150002B7843F004032B700124002338461A4671
:10916000194603F0C7F92046F8BD3446F5E700BFBD
:1091700070B505460E4608464FF0FF3103F0D6FDA8
:109180002878C0F3800444B90024002330461A46EE
:10919000194603F0AFF9204670BD2B7813F0010299
:1091A000F2D12B7862F382032B70EEE710B4C37810
:1091B000848803F00303022BC4F30A0426D019D8D1
:1091C000012B04D0002318465DF8044B7047022998
:1091D00040F2FF3208BF4FF48062A242F3D21A4B32
:1091E0001B6813F00103EED000BE002318465DF8A3
:1091F000044B7047022914BF40234FF48063A342FD
:10920000EDD3012318465DF8044B704702290BD0BB
:1092100012B1B4F5007F11D0A4F108039BB2182B52
:1092200006D9402CEDD0DAE7B4F5007FD7D1E8E7D6
:10923000064A22FA03F3DB07D1D5E2E700244021F6
:10924000134644710171BEE7F0ED00E00101000139
:109250002DE9F04182B00678089DBDF82470009396
:1092600061F300060446294600F8086B0123164600
:109270003A46BDF82C80FEF77DFB05B13FB90A9B4D
:1092800063600120A4F8028002B0BDE8F08104F11F
:109290001C01012003F008FB26B903463046C4E94F
:1092A0000503ECE70023FAE710B50446406908B16E
:1092B00003F0E8FEA06908B103F0E4FE012010BD50
:1092C000F0B50B460D4613F8081B83B011F0020FE2
:1092D0000746184640F2FF130CBF3F241C461646B3
:1092E000FEF784FBE8B9E6B126421AD12B786978FB
:1092F000DA07384618D502F0D9F990B12B78697899
:1093000013F0010313D000233846CDE900331A4689
:1093100002F010FA30B9084B1B68DB0701D500BE1C
:1093200000E0002003B0F0BDFEF702FFE5E738469D
:109330001A46FEF71DFFEDE7F0ED00E070B501F114
:10934000080582B0064628460C46FEF74FFB38B1AA
:1093500023786178DB07304605D502F0A7F930B9EC
:10936000002002B070BDFEF7E3FE0028F8D02846CA
:1093700062886168FEF764FB054690B123786268F5
:109380006178D80717D50023CDE9003330462B4646
:1093900002F0D0F9B0B90C4B1B68DB07E0D500BE7A
:1093A000DFE72078617810F00104304608D1FEF73D
:1093B000CFFE2046D5E730462B46FEF7D9FEE9E73B
:1093C00002F09AF92846CCE7F0ED00E02DE9F041F3
:1093D0008A890B7882B00C460646E2B9DD074978E7
:1093E00057D502F063F900284FD02278638861785E
:1093F000D20751D5002B5DD0626800253046CDE9FB
:10940000005502F097F900284DD1374B1B68DB0758
:109410003BD500BE3AE003F0020301F10808002B3F
:1094200040460CBF40274FF40077304D08BF6FF027
:109430003F05FEF7F3FA874227D823786178DB07E8
:10944000304634D502F032F9F8B14046FEF7E6FA7C
:10945000874233D805EA000265882378617890B2A4
:10946000854228BF0546DA0732D5002D37D062681D
:109470000023CDE9003330462B4602F05BF900288B
:10948000C3D0284602E002F037F9002002B0BDE860
:10949000F081FEF74DFEA6E773B162683046FEF735
:1094A00067FE0028B1D0608802B0BDE8F081FEF709
:1094B0003FFEC9E71A46A0E71A46EFE72078617831
:1094C00010F001043046DED1FEF742FE2046DDE713
:1094D0003DB1626830462B46FEF74AFECFE72A468A
:1094E000C6E72A46F6E700BFF0ED00E000FEFFFF0A
:1094F000704700BF01207047704700BF704700BF32
:10950000044B0022C3E90022C3E90222C3E904227A
:10951000704700BFDC6D002001207047044B002223
:10952000C3E90022C3E90222C3E90422704700BF55
:10953000DC6D00202DE9F0434B79032B83B004D080
:109540000024204603B0BDE8F0830B79C3EBC304CD
:109550001234A4B2944205D9254B1B68DA07EFD523
:1095600000BEEDE7234A5578002D3ED0557B002DF7
:10957000F2D102F10C054FF4A0770E788A1992F817
:1095800001C0BCF1210FE7D1AA608946895D804600
:109590006E1CA81C1144CDE900061A464046032360
:1095A000FEF702FD0028D7D099F80630A978012BE4
:1095B00004BF99F80730EB700123AB7199F80220D2
:1095C000AB682A70B3F80730AB800029B9D00A4ADB
:1095D00040463A444023FEF7CBFD0028B1D1044B6E
:1095E0001B68DB07ADD500BEABE715468027C4E797
:1095F000F0ED00E0DC6D00205C6C00202DE9F04710
:10960000137803F01F06012E82B003D0002002B0B1
:10961000BDE8F087DFF80882978898F80040FFB22D
:10962000BC4200F0B08098F80C40BC42EED1374606
:10963000B4464FF0C00E4FF0130A4FF0120913F06A
:1096400060030C460546164604D1012900F0A480AB
:109650000120DCE7202BD9D15378013B0A2BD5D848
:1096600001A252F823F000BF3D9702003397020099
:109670001D9702000D9602000D9602000D96020045
:109680000D9602000D960200DD960200B5960200CE
:109690009596020001291BD00329D9D173880C2685
:1096A00006FB0786DBB260461946B371FFF720FF61
:1096B0000120ACE70129CBD173880C2202FB07877C
:1096C0001B0A60461946FB71FFF714FF00289DD066
:1096D00031462846FEF7DCFD012098E7012900F01D
:1096E00086800329B4D1F48871884B4B402C4FEA13
:1096F0001122204628BF402011F0FF01734407D0FB
:10970000012C05D91C788C4202D1013880B201337A
:109710000090604602F0F2FC012078E7012997D121
:1097200008EB0902314628462346FEF7C9FD2046CC
:109730006DE701298CD108EB0A02F3E7012987D1F3
:10974000F3887188344F402B4FEA1122184628BF06
:10975000402011F0FF01774454D0012B52D9013839
:1097600080B239707B1C0090604602F0B1FC04446A
:10977000A3B2002B49D1294A1268D2077FF546AF20
:1097800000BE184643E74FF0000E7746F4464FF010
:10979000070A4FF0060952E75378062B7FF436AFDD
:1097A00053881B0A212B12D0222B7FF42FAF604647
:1097B00002F086FC7B001F4408EB87080246314616
:1097C0002846B8F80430FEF77BFD20461FE77B00F3
:1097D0001F4408EB8708D8F80820002A3FF416AF8A
:1097E0001378314602B0BDE8F047FEF769BDF38853
:1097F000402B3FF60BAF084A31467244FEF760FD3E
:10980000204604E73B460024ADE73A463146284669
:10981000FEF756FD0120FAE65C6C0020F0ED00E05A
:10982000DC6D0020F0B52C4CA67865788E4283B0B4
:10983000074610D0A9422CD0A07B657B88423FD040
:10984000A94244D0254B1B68DA0702D4002003B09C
:10985000F0BD00BEFAE780264FF0400C0020A94280
:109860009BB21AD01E4D3544FAB9009311462B46CF
:10987000022202F043FC2A46A17838464023FEF734
:1098800077FC0028E3D1154B1B68DB07DED500BE53
:10989000DDE74FF0400C00209BB2114961444AB90A
:1098A0001A46FFF729FE0120D1E72A460221FFF7D9
:1098B00025FEE0E70A460121FFF720FE0120C6E76A
:1098C0000C344FF4A0764FF4807C0120C7E74FF4AE
:1098D000807C0120E0E700BFDC6D0020F0ED00E0BF
:1098E0005C6C002070B5194C82B000210D464FF41D
:1098F000EC72204606F014F804F1380101238022AE
:1099000004F110000095FEF735F804F1B8010123C9
:109910008022009504F12400FEF72CF804F59C71D8
:10992000012002F0C1FF04F5C4710646012002F0D7
:10993000BBFF30B9064B1B68DB0700D500BE02B089
:1099400070BDC4E90756C4E90C05F8E7746E002041
:10995000F0ED00E038B5094C206A256B20B103F02A
:1099600091FB0023C4E907332DB1284603F08AFB9D
:109970000023C4E90C33012038BD00BF746E002001
:1099800010B5084C002304F11000C4E90033C4E909
:109990000233FEF787F904F12400BDE81040FEF71A
:1099A00081B900BF746E00202DE9F0434B79012B83
:1099B00083B004D00025284603B0BDE8F0838B793E
:1099C000012B0C46064616D049780429F2D1002511
:1099D000032BEFD1E379002BECD1DFF8FC8098F872
:1099E000013013B998F802700FB3384B1B68DB07CE
:1099F000E0D500BEDEE7CB79002BDBD10B781C4431
:109A00009DB2617824290BD1954202D9D2E7AA42AE
:109A1000D0D323781C442B44617824299DB2F6D0FE
:109A20000429C7D16379012BC4D1A379D0E7A378E6
:109A300088F8003094F8009021794D44ADB2A144EB
:109A400039B925E099F800308F421D44ADB29944F0
:109A50001ED2AA421CD399F80130052BF2D14946F7
:109A600030460192FEF740FB019A0028BDD099F8DC
:109A70000230D90914BF88F8013088F8023099F80B
:109A80000030217901371D44FFB2ADB29944D9E7C6
:109A90000F48FDF7C3FF3F288DD998F8021000202A
:109AA000FEF746FB002886D00948FDF7B7FF3F28A0
:109AB00098F8021003D80020FEF74AFB7BE7054A1E
:109AC00040230020FEF754FB75E700BFF0ED00E0F7
:109AD000846E0020346E0020746E002000207047D9
:109AE000F8B53C4DAA788A421F4612D19AB23A493B
:109AF00005F11000FEF748F8384B13B10020AFF322
:109B000000803748FDF78AFF3F282CD801242046E3
:109B1000F8BD6B788B4208D0324B1C6814F00104FE
:109B2000F5D000BE00242046F8BD064605F124000D
:109B3000FDF75CFF40BB2C48FDF758FF0028E5D13E
:109B4000002FE3D017F03F07E0D169783046FEF7E9
:109B5000EFFA04460028D9D0697830463B463A46A9
:109B6000FEF706FBD3E7A9780020FEF7E1FA0446EA
:109B70000028CBD01A48FDF751FF3F28A9781ED8FE
:109B80000020FEF7E5FAC2E769780020FEF7D0FA78
:109B90000028D0D04022154905F12400FDF750FFE0
:109BA000034690B1114A69780020FEF7E1FA0028D7
:109BB000ACD10C4B1B68DB07BDD500BEBBE7064A2A
:109BC00040230020FEF7D4FAA1E76978FEF7C0FA37
:109BD000B1E700BF746E0020346E0020000000006A
:109BE000846E0020F0ED00E0986E0020F46D0020FF
:109BF00030B4114B9C689A6B93F83C5083F82C104E
:109C0000A21A022183F830109A6225B942F20501A6
:109C100083F83E50998744B13AB11A7BD20906D1F4
:109C200093F82F1030BCFEF7E3BA30BC704793F8BE
:109C30002E1030BCFEF7DCBA4C72002038B5214B38
:109C4000214C05461BB1607B02F054FBA8B1A06B10
:109C5000A36894F82F101D4A1B1AB3F5007F28BF84
:109C60004FF4007328469BB2FEF782FA20B9184BD6
:109C70001B68DB0700D500BE38BDA268A36B84F863
:109C80003E0042F20771D31A0120A1870221A3628C
:109C900084F82C0084F83010002AEDD0002BEBD093
:109CA000237BDB0906D194F82F102846BDE8384005
:109CB000FEF79EBA94F82E102846BDE83840FEF70D
:109CC00097BA00BFF5C202004C7200204C70002011
:109CD000F0ED00E070B5304CE28AA36852BA92B25F
:109CE00086B0054612B1B3FBF2F292B2A66BD4F87D
:109CF0001110607B9B1BB3F5007F28BF4FF40073EE
:109D000009BA0093B6FBF2F302FB13621944234B2A
:109D100002F0B8FA031E20DB94F82E200DD0114675
:109D20009BB228461D4AFEF723FAA0B91C4B1B68BC
:109D3000DB0710D500BE06B070BD0724194603A886
:109D40008DF80C508DF8102005938DF811308DF89A
:109D50000D40FEF701F806B070BDA268A36B43F694
:109D600002200021D31AA08784F83E10012002218E
:109D7000A36284F82C0084F83010002AEBD0002B6A
:109D8000E9D0237BDB0914BF94F82E1094F82F1030
:109D90002846FEF72DFADEE74C7200204C700020BA
:109DA000F0ED00E010B4054C012084F83C1084F87C
:109DB0003D2084F83E305DF8044B70474C72002023
:109DC00040220021014805F0ABBD00BF4C720020CD
:109DD00040220021014805F0A3BD00BF4C720020C5
:109DE0004B79082B01D0002070478B79062BFAD1D4
:109DF000CB79502BF7D1162A06D81C4B1B68D907F4
:109E0000F1D500BE0020704770B5194D8B7885F8EC
:109E10002D300B7882B005F12F0205F12E06194482
:109E20000223CDE900261A460446FEF7BDF848B9DC
:109E30000E4B1B68DA0702D500BE02B070BD0020D1
:109E400002B070BD204695F82F100A4A00241F2347
:109E500085F83040FEF78CF930B9044B1B68DB07FE
:109E600002D500BE1720E8E71720E6E7F0ED00E096
:109E70004C7200204C700020012901D00120704755
:109E8000F0B5137803F07F01022985B0054606D0AE
:109E900003F06003202B1AD0002005B0F0BD5478E9
:109EA000012CF5D15388002BF6D1434E918896F8BA
:109EB0003030042BC9B279D096F82E408C423DD078
:109EC00096F82F408C4257D0012005B0F0BD537852
:109ED000FE2B16D0FF2BDFD15388002BDCD1D4888A
:109EE000A3B2002BD8D1344E1146284686F8303024
:109EF000C6E90D33B48786F83E30FEF7C9F9012074
:109F0000CBE75388002BC7D1D388012BC4D12B4971
:109F10008DF80F3000294DD0019202F003F9019A1B
:109F20000028B9D0431EDBB204AC114604F8013D51
:109F3000284622460123FEF7C3F9C5E7022BC3D109
:109F4000B26BB3681E4F9B1AB36206F120030FCBAE
:109F500007C73A46214602F80C39032428460D2348
:109F600086F83040FEF704F90028ADD1154B1B6888
:109F7000DB0791D500BE90E7002BA5D12146FEF767
:109F800029F90028A0D121462846FEF74FF90028DC
:109F90009AD1002496F82F10094A86F830402846B6
:109FA0001F23FEF7E5F80028E0D08DE7FEF720F943
:109FB000204672E70B46B7E74C72002025C102002D
:109FC0004C700020F0ED00E02DE9F041B44C94F825
:109FD0003050012D8EB01E46074645D028D3032DA4
:109FE00005D0022D5FD001200EB0BDE8F08194F8BD
:109FF0002E308B42F7D10D2EF5D1E37B282B00F0CC
:10A000001A812A2B40F00D81A64B13B1607B02F020
:10A0100065F9002594F82F10A34A84F830501F23C7
:10A020003846FEF7A5F8002861D094F83050D8E7FC
:10A0300094F82F508D42D6D11F2B06D1DFF86882BD
:10A040009A4BD8F800209A4271D0042394F82E102D
:10A0500084F830303846FEF7CBF8384694F82F10A5
:10A06000FEF7C6F80020BFE7B3F5007F08D9904B94
:10A070001B68D90700D500BE00200EB0BDE8F081F6
:10A08000E27BA36B282A00F087802A2A00F08F80C9
:10A09000217B626B1E44CB09A66336D096422CD33B
:10A0A000022384F8303094F82E103846FEF7BEF8BC
:10A0B000002898D1A368A26B94F82E60934202D92D
:10A0C000217BC9092ED19B1A7A4AA3620FCA764D09
:10A0D00007C52A46314602F80C39032538460D23B8
:10A0E00084F83050FEF744F800287FF47CAF704BC2
:10A0F0001B68DB07C0D500BE76E76D4B1B68DA072F
:10A1000093D500BE94F830506BE793B2607B664AFB
:10A1100004F10F0102F096F80028C0F29F80A66BB0
:10A12000626BBBE731463846FEF762F85BE7C44630
:10A13000BCE80F0026460FC69CE80F0007C626F8AD
:10A14000023B1B0C3370D4E90123E17B5A4E62625F
:10A1500001200022282963632662A26284F82C2051
:10A16000A26384F8300000F0AD802A2900F0DF807F
:10A17000002B00F0EF80227BD20940F0EB80B3F59A
:10A18000007F00F26F819BB22946474A3846FDF7AF
:10A19000EFFF0028ABD048E7626B1E449642A663EF
:10A1A000BFF47EAFFFF796FD94F8305019E7E28ACE
:10A1B00052BA92B21AB1A168B1FBF2F292B2D4F8DB
:10A1C0001110394DB3FBF2FC09BA02FB1C32607B63
:10A1D000009661442B4602F06BF80028C0F2FB8128
:10A1E000864230D9361A40B1A36B291813FA80F38E
:10A1F00032462846A36305F07AFB002394F82F50DB
:10A200008DF818500722194605A88DF81470079686
:10A210008DF819308DF81520FDF79EFD94F830501B
:10A22000DFE6264B002B3FF4F4AE04F10F01607B18
:10A23000AFF30080EDE6224B002B3FF4EAAE607BEB
:10A24000AFF30080E5E6D4E90D231E449642A663F1
:10A25000BFF426AF3846FFF7F1FCE6E6A368A66B2D
:10A2600094F83C1084F82C509A1B0220A26284F8C7
:10A27000300021B942F2050084F83E10A087002B7F
:10A280003FF44EAF002A3FF44BAF237BDB0940F095
:10A29000E58194F82F103846FDF7AAFF3FE700BF8D
:10A2A0004C720020DDC202004C7000205553424326
:10A2B000F0ED00E06C7200205553425300000000A6
:10A2C00000000000E28A52BA92B20BBB002A3FF4AF
:10A2D000E7AE94F83C10A362022284F82C2084F8A4
:10A2E000302000297FF4DFAE42F205010022A18771
:10A2F00084F83E20002B3FF4D6AE237BDB0940F0F0
:10A300009A8129463846FDF773FF94F8305068E685
:10A31000207BC00913D0002A00F08081B3FBF2F249
:10A32000002A00F0A3812829384694D13AE7E28A2E
:10A3300052BA92B2002BC9D0207BC009EBD094F85E
:10A340003C10A362022284F82C2084F830200029DB
:10A35000CAD0D2E7667B252900F22B81DFE811F015
:10A36000220129012901E5002901290129012901E9
:10A37000290129012901290129012901290129018D
:10A3800029012901BD0029012901290129012901EA
:10A39000290129019900870029012901710029015A
:10A3A0002901290129014C0029012600304604AA6F
:10A3B00005A901F035FF059B002B00F04481BDF895
:10A3C0001020002A00F03F81013B1BBA12BAC8E9F5
:10A3D00000320820A368002B44D0984228BF1846BA
:10A3E00083B26063A64A94F82E103846FDF7C0FE8B
:10A3F00000283FF47CAE18E605AD00230DF10E02F7
:10A40000304604A96B600593AB6001F009FF049A24
:10A41000002A00F01881BDF80E30002B00F01381E7
:10A4200012BA082106925BBA0222ADF81E308DF8EE
:10A4300017108DF81C2095E8070088E807000C200D
:10A44000C8E7904B03B33046227DE17CAFF3008038
:10A45000D0B994F83C302BB943F602220023A287EE
:10A4600084F83E3001213846FFF7C2FBDDE5864B1C
:10A4700053B1E17C3046C1F3400301F00102090908
:10A4800001F0EAFE0028E4D0A368002B3FF408AEF8
:10A49000E8E79DF816307D49002203F0800362F35F
:10A4A000C7138DF8163003238DF815208DF817206B
:10A4B0008DF81430002900F0E180304601F01AFFD9
:10A4C0009DF8163080F0010060F3C7138DF8163048
:10A4D000059BC8F8003004207CE74FF020330225AC
:10A4E0000022CDE90522304607A909AA08934FF0BA
:10A4F000800C079309930D93CDE90A330C931F2623
:10A500000DAB8DF816508DF8175005AD8DF818600D
:10A510008DF815C001F00EFE0FCD594E0FC60FCDB0
:10A520000FC62B683360242054E794F83C2094F83D
:10A530003D0094F83E10DFF848C1DFF858E14FF0D5
:10A5400000084FF00003CDE90588CDE9078862F3E4
:10A5500003038DF81630F0220A23ADF824808DF81D
:10A5600020008DF821108DF814208DF81B3005ADDA
:10A570000FCDACE80F002B68ACF80030BEF1000F37
:10A5800076D0ACF1100130464FF40072AFF300808A
:10A590000028A4F83C8084F83E800FDB00283FF4BC
:10A5A00073AF17E7304601F017FE00283FF451AFB4
:10A5B0006AE794F83C30002B7FF454AFA38E304A06
:10A5C0003349607B01F03EFE0028FFF64BAF0028C8
:10A5D0003FF45AAFFEE6A36BA2681E4443F6022086
:10A5E0000021931BA08784F83E1001200221A6635E
:10A5F000A36284F82C0084F83010002A3FF453AD95
:10A60000002B3FF450AD237BDB0914D194F82F10BD
:10A610003846FDF7EDFD94F83050E2E4012294F85D
:10A620003C1084F82C200222A36284F830200029F8
:10A630003FF45AAE5EE694F82E103846FDF7D8FD8A
:10A6400094F83050CDE494F83C30002B7FF40AAFFE
:10A6500043F6022284F83E30A28703E794F82E10D6
:10A660003846FDF7C5FDD4E90D2617E50222D6E7E9
:10A67000A4F83CE084F83EE01220ABE601201FE79E
:10A680004C7000200000000059C20200F5C2020018
:10A690005B7200200000000070B5134C134E84B0B4
:10A6A00020464FF4AE72002105F03AF94025002310
:10A6B00004F58E720092CDE901561A46194604F14E
:10A6C000B0000395FEF7C4FD2E4404F17002002390
:10A6D000CDE90025CDE90265201D19460122FEF7CE
:10A6E000B7FD04B070BD00BF0C7300208C72002059
:10A6F00010B5054C04F1B000FEF7D6FD201DFEF7A5
:10A70000D3FD012010BD00BF0C73002038B5074CED
:10A710002046002500F8B85BFDF7C4FA04F10C00F0
:10A72000FDF7C0FA84F8B150657138BD0C73002094
:10A730004B79FF2B01D0002070472DE9F04FDFF857
:10A7400024B19BF8B13083B04BBB9BF8053033BBD1
:10A750000B788A460AEB02050AEB030489788BF82A
:10A760000010A542064614D91AF80320A3189D42EA
:10A770000FD36278042A0CD00B2A0AD0052A0BF1D9
:10A78000B8080BF1B0070BF10C0917D09D421C461D
:10A7900009D8A4EB0A0080B203B0BDE8F08F002016
:10A7A00003B0BDE8F08F1A7813449D42F1D362786C
:10A7B000042AEED00B2AECD0052AE7D121463046F8
:10A7C000FDF792FC002843D0A378DB0905D19BF864
:10A7D000B1301BB32278A318D8E79BF80530002BC3
:10A7E000F8D148460193FDF75DFAA2788BF8052071
:10A7F000A2889BF804C0019B1849C2F30A02A2F583
:10A800000072B2FA82F2520962F3410C18468BF8D8
:10A8100004C0FEF793FD2278A318B7E74046FDF782
:10A8200041FAA3788BF8B130A3889BF8B020C3F32A
:10A830000A03A3F50073B3FA83F35B0963F34102E0
:10A84000394630468BF8B020FEF7C0FD0028C1D154
:10A85000034B1B68DB07A2D500BEA1E710730020E5
:10A86000F0ED00E00C73002070B51C4C94F8B120A2
:10A870008A4205461E460FD1B4F8BC20F2B9184BE7
:10A8800023B1B2B217490020AFF300802846164921
:10A89000FEF79CFD012070BD63798B4201D0002042
:10A8A00070BD124B1BB1B1B20020AFF30080104954
:10A8B0002846FEF743FD48B1012070BDB2B2D4F87E
:10A8C000B41004F1B800FDF75FF9D8E73246284626
:10A8D0000749FEF7F5FC012070BD00BF0C73002096
:10A8E000000000008C720020BC73002000000000FB
:10A8F00010730020F8B50E688D88B7783544AE42E5
:10A900000BD23B469F42344603D10BE06378042BC5
:10A9100005D023781C44A542F8D80020F8BDA378C0
:10A920009F42F6D1E3789A42F3D1A542F5D9237D2F
:10A93000012B06D9144B1B68DA07EED500BE0020A8
:10A94000ECE723790D46DBB1012BE6D12278E389D0
:10A95000617A1344114423442144994204D3DCE72F
:10A960000A7811448B42D8D94A78052AF8D1FDF7E4
:10A97000BBFB28B9044B1B68DB07CED500BEF8BD76
:10A98000A41BEC800120F8BDF0ED00E0C28832B9D4
:10A99000654B1B68DB0700D500BE00207047F0B494
:10A9A0000378624803EB830403EB4403C058831825
:10A9B00003D08E781C7BA64207D95B4B1B68D90756
:10A9C00000D500BE0020F0BC70472EB9012C01D983
:10A9D0000120F8E701268E7001248C60C1F80E403A
:10A9E0004C7700256FF03F0481F822508C766FF091
:10A9F00003056FF06404CD760C774D4DC1F81E5001
:10AA0000082481F82340825CB3F80D4014441C44B0
:10AA10001344A342D1D2474F9D78102D0CD827FA6A
:10AA200005F0C04310F0010006D1DA78964203D158
:10AA300007E05A78242AEFD01A7813449C42F8D8B9
:10AA4000BBE79C42B9D0062D06D0102D04D0042DB2
:10AA5000B9D1012248730A73CF781A79974218D86E
:10AA60001FB9012AB4D80127CF701A781A44A2421C
:10AA70000FD2967806F0FD0CBCF1050F0FD0112E09
:10AA800003D10CE05678242EF3D016783244944249
:10AA9000F8D8254B1B68DA0794D500BE93E7D67823
:10AAA000B742F2D19442F4D0D1F812408CB9062DBD
:10AAB00030D0102D2ED0042D09D1B2F80560B2F897
:10AAC00007505C7D05FB06F304FB03F4E408C1F8C2
:10AAD00012404B6863B9557E012D3FF679AFD2F82D
:10AAE0001A3025B9D2F81E209A427FF471AF4B601C
:10AAF000114AA2FB03235A0BCBD0631E1344B3FBB2
:10AB0000F2F30233B3F5807F28BF4FF48073C1F8AE
:10AB100016305DE7B2F80530B2F8074004FB03F4E5
:10AB20002401E408D3E700BFF0ED00E068740020E2
:10AB300003010101501001005917B7D12DE9F84F59
:10AB40000B785D4C03EB83050E4603EB4503098947
:10AB5000E7589146804679B13944CB7803F0030336
:10AB6000012B00F09480738933B13B44DA7802F012
:10AB70000302012A00F091807488B58800233C44C8
:10AB8000B381F38133827382B382F3823D44A2782E
:10AB9000AC4238BF134609D29A4203D10CE0637825
:10ABA000042B06D023781C44A542F8D80020BDE829
:10ABB000F88FA3789A42F5D1E3789945F2D1A5426E
:10ABC000F4D994F804A0BAF1020F15D8E31BF3806E
:10ABD000B9F1000F16D023781C44BAF1000F4CD005
:10ABE0004FF0000B06E06378052B28D0042B03D030
:10ABF00023781C44A542F6D8304B1B68DA07D5D51C
:10AC000000BED3E7737F012B12D006F11E03494625
:10AC100086F81D90A6F81890A6F81A9018463022CB
:10AC200004F07EFE01463046FFF7B0FE0028BDD09E
:10AC300023781C44BAF1000FD2D10120B7E7E378A2
:10AC400003F00303B9F1000F01D0012B18D0022B40
:10AC5000ACD121464046FDF747FA28B306EB4B033B
:10AC6000E21B1A8122780BF101039A4514444FF03C
:10AC7000010BBFD8B9F1000FDFD002237377DCE7F7
:10AC8000A388B269C3F30A039342E2D28EE700239A
:10AC900033818978FDF7D8FA65E7002272819978C7
:10ACA0004046FDF7D1FA67E7044B1B68DB077FF5E9
:10ACB0007DAF00BE7BE700BF68740020F0ED00E0D0
:10ACC00010B4064C06480023C4E900331946C4F802
:10ACD00007304E225DF8044B04F022BE6874002059
:10ACE000747500200120704710B4064C06480023FC
:10ACF000C4E900331946C4F807304E225DF8044B0E
:10AD000004F00EBE68740020747500202DE9F04137
:10AD10004B790E2B04D04FF000084046BDE8F0817F
:10AD20008B79012BF7D1CB79012BF4D13E4E3368CF
:10AD30002BB13E4B1B68DB07EDD500BEEBE714469D
:10AD40000F461A46314605463760B480FFF7D2FDFC
:10AD50000028E0D0F2883368B97813443C44A74215
:10AD600093F814C03B4605D308E05A78042A4DD026
:10AD70000B2A4BD01A7813449C42F6D8BCF1000F32
:10AD80004ED02B494A88002AD3D1D81B1FFA80F80D
:10AD90003272A1F802809C4293F802E00A8098BFC8
:10ADA000034605D80BE05A78042A2BD00B2A29D069
:10ADB0001A7813449C42F6D8DB1B1FFA83F8002252
:10ADC000BCF1010FA1F804804A77B2D117FA80F0E4
:10ADD00017FA83F3984281780AD282788A4203D1A3
:10ADE00018E04278042AF8D0027810448342F8D858
:10ADF000284600220E49FFF7A1FE00288BD0A6F8B6
:10AE000004808AE79A787245D2D0D5E79A788A4248
:10AE1000B0D0B3E7C278012AE6D18342EFD1E7E7A9
:10AE2000DB1B1FFA83F8EAE768740020F0ED00E00E
:10AE3000747500202DE9F047167806F01F04012CE8
:10AE40008CB004D0002420460CB0BDE8F087DFF8B9
:10AE5000F892B2F804C0D9F80070804615465FFA3F
:10AE60008CF317B1BA789A422CD0B44F7C88002C5E
:10AE7000E9D03A7802EB820002EB400259F802E096
:10AE80007444A2789A42DDD1C6F34116F3B2002B86
:10AE900000F09C80012B12D15FEA1C2C0FD16B8833
:10AEA0001B0A022B00F02E81062B00F01781012BCC
:10AEB00000F0F580A24B1B68DB0700D500BE07231E
:10AEC0003B77BFE7C6F34116F4B2002C47D0012C04
:10AED00025D15FEA1C2C26D0B9F80620BB18B95C36
:10AEE000DA89114419448B420ED29A78023A052A23
:10AEF00006D8DA78624503D107E05A78242AF4D0DC
:10AF00001A7813449942F8D849B1002389F80930D6
:10AF1000012498E78A4B1B68D90700D500BE072398
:10AF200089F809308EE76B881B0A012B00F09580A9
:10AF3000022BEFD16B78812B00F04781862BE9D172
:10AF40000129E2D10B46404629467E4AFDF7B8F971
:10AF50000028DAD1FF2389F80930002473E76B78E1
:10AF60000A2B4AD00B2B3ED10129CED1EB88002BE6
:10AF7000F0D1B9F80630FA181179A9B1F85CD18985
:10AF8000537A0144034413440A44934205D395E1A0
:10AF900019780B449A4240F2918159780529F7D1EA
:10AFA00099784046FDF750F90026A9F806606A88AE
:10AFB00065494046FFF79EFC04460028CAD0294652
:10AFC0004046FDF765F989F809603CE76B780A2B84
:10AFD00027D00B2B7FF46EAF012900F0BD8000233A
:10AFE0003B7701242FE7564B1B6813F001032FD149
:10AFF00007221C4689F8092025E7012985D1EB881D
:10B00000012BA7D1B9F80620BF18A3D00CAAF97854
:10B0100002F8301D2946FDF753F904460028D2D125
:10B0200098E70129DBD1EB88012B35D1FB889BB355
:10B030001EEB030330D00CAADB7802F8303D40460B
:10B040000B462946FDF73CF9044628B33E77FAE65D
:10B0500000BE072389F80930F5E66B78812B00F0F4
:10B06000D180862B00F0BE80012B7FF453AF0129E5
:10B0700000F0CB8002297FF448AF344B002B3FF423
:10B0800044AF99F80A100020AFF30080B0FA80F4C2
:10B0900089F809006409D6E6FF233B77D2E67B7F77
:10B0A0000BB187F81DC06C78842C61D8822C65D2D6
:10B0B000012C00F00A81812C7FF4FCAE01298ED195
:10B0C000EB883BB1294640463023214AFDF7F8F88A
:10B0D000002884D1FF233B770024B4E66B78812BD2
:10B0E00000F0A180862B7FF4E5AE01297FF477AFD5
:10B0F000294640460123134AFDF7E2F800287FF471
:10B100006EAFE7E76B78812BD8D040F2B080852B0B
:10B1100000F09780862B7FF4CDAE01297FF45FAFDE
:10B12000EB88012BD6D10B4640462946094AFDF74C
:10B13000C7F800287FF453AFCCE700BF7475002038
:10B14000F0ED00E0881E030068740020000000009D
:10B1500092750020891E03006A8839464046FFF731
:10B16000EDFC002898D029464046FDF791F836E7D7
:10B17000862CD2D065D3872C7FF49CAE01297FF436
:10B180002EAFEB88002BA5D0B64EE94606F1300A6B
:10B1900030687168B268F368CC46ACE80F001036CE
:10B1A0005645E146F4D19DF80210002940F09F80F9
:10B1B000832C00F08381872C00F06481822C00F0C6
:10B1C000618108233B7700243DE601297FF49DAE91
:10B1D000294640460123A44AFDF772F800287FF46F
:10B1E00094AEB7E601297FF490AEEB88012B7FF493
:10B1F000B1AE294640469D4AFDF762F800287FF42B
:10B2000084AEA7E601297FF480AEEB88012B7FF4A2
:10B21000A1AE294640460123954AFDF751F8002882
:10B220007FF473AE96E601297FF4D9AE0B46404613
:10B23000294607F11C02FDF743F800287FF4CFAE42
:10B2400048E701297FF4CBAEEB88022B7FF442AFB5
:10B250000CAA302122F8301D40462946FDF730F86F
:10B26000044600283FF436AF00233B77EBE5012B83
:10B270007FF420AE01293FF425AF02297FF4AFAE61
:10B280007849A1F11E00FFF781FB044660B3794BBA
:10B290007A6BBA613BB1734A79783878AFF3008042
:10B2A00000287FF49CAE7449002302204FF4807282
:10B2B0000880C7E903337B61BA83C4E56F4B1B6821
:10B2C000D8077FF547AE00BE44E601293FF4FAAE49
:10B2D00002297FF484AE6349A1F11E00FFF756FBFB
:10B2E000044600287FF47BAE08233B77ABE59DF84E
:10B2F000030000287FD1FA88002A3AD01EEB02030F
:10B3000037D01EF80220B3F80D005D4E10441844EB
:10B31000134498420FD99A78102A04D826FA02F2D8
:10B32000D20700F1D5801A7813449842F1D95A789F
:10B33000242AF8D1EDE70346832C5AD0872C4CD031
:10B34000822C7FF43EAF01218DF803101A781A4445
:10B35000904237D9947804F0FD06052E10D0112CB8
:10B360000ED0147822449042F2D95478242CF8D18B
:10B37000EEE7424B1B68D9077FF523AF00BE20E7FD
:10B38000D478A142EDD1997806291DD010291BD07F
:10B3900004297FF416AFB2F80510B2F807205B7DE0
:10B3A00002FB01F203FB02F3DB08CDF812306A4620
:10B3B000294640463023FCF783FF044600283FF42B
:10B3C00089AE51E70246DEE7B2F80510B2F8073061
:10B3D00003FB01F31B01DB08E7E79A78062A06D096
:10B3E000102A02D0042A7FF4ECAE997DACE799795B
:10B3F000AAE71979A8E7019B002BD8D1FA88002A7F
:10B40000B7D01EEB0203B4D01EF802E0B3F80D2053
:10B41000DFF86CC072449E1873449E420ED99A782D
:10B42000102A03D82CFA02F2D20756D41A78134401
:10B430009E42F2D95A78242AF8D1EEE733461A7898
:10B4400013449E4264D99A7802F0FD01052948D040
:10B45000112A46D01A7813449E42F2D95A78242AE7
:10B46000F8D1EEE79275002071740020891E030068
:10B47000727400200000000074740020F0ED00E001
:10B480005010010001238DF8023001234FF001120A
:10B49000029300230392ADF810304FF6C0428DF8AE
:10B4A000223040F29B13ADF81A20ADF81C30404A10
:10B4B000CDF81E2008238DF8233078E7FB88002B79
:10B4C000E3D01EEB0303E0D01B7B8DF80230DCE7FA
:10B4D000DA7891427FF427AF2EE7DA789142A5D14E
:10B4E000ADE7DA789042B5D1823C052C3FF669AEE3
:10B4F00001A252F824F000BF79B502005DB5020048
:10B500003FB50200C3B10200C3B1020015B502008D
:10B510003346E9E7D3F8151042F21073B1FBF3F3A9
:10B52000019100293ED0DDF812208BB9931CB3F5B0
:10B53000807F28BF4FF48073CDF8163037E75A7EEE
:10B5400072BBD3F8221042F21073B1FBF3F3E7E7BA
:10B55000013A1A44B2FBF3F30233E8E75A7ECAB168
:10B56000053203EB8202D2F80210D3F81A3042F20D
:10B570001072B3FBF2F3D3E75A7E72B1053203EBDC
:10B580008202D2F80220D3F81A1042F21073B2FBF2
:10B59000F3F3C5E7D3F81E10E7E7D3F81E20F2E770
:10B5A000002301930023ADF81630ADF81830FEE605
:10B5B000030101012DE9F84F334C238953B122785F
:10B5C000324F02EB820502EB45057D592B449F78F3
:10B5D0008F420AD02E4B1B68DB0703D500BE00202C
:10B5E000BDE8F88F0020BDE8F88FD4E904369E420C
:10B5F00005460BD327490023C4E90333636119B11E
:10B6000061781046AFF300800120E9E7FCF790FD78
:10B610000028E7D0DFF88090A36999F80000D4E90A
:10B62000042BA2EB0B0808EB00069E4228BF1E4627
:10B63000B04213D9164B1B6813F0010301D000BEB2
:10B64000002339462846144AFCF792FD0028DBD136
:10B650000F4B1B68DA07C5D500BEC1E7E168A6EB52
:10B66000000A59444844524604F036F90BEB0A03E9
:10B67000D0456361B3B2E4D199F8012042F00202EF
:10B6800089F80120DDE700BF747500206874002090
:10B69000F0ED00E0000000007474002000B170477D
:10B6A00002F0B0BE00B1704702F0B6BE0138C3B2BE
:10B6B000042B07D856230D4A03FB00F013181B79FF
:10B6C000DB0706D40A4B1B68DB0700D500BE002051
:10B6D0007047CB09363301F07F0103EB4101054B85
:10B6E000084410441968FDF717BD00BFC475002059
:10B6F000F0ED00E0747700200138C3B2042B07D8C6
:10B7000056230A4A03FB00F013181B79DB0701D408
:10B7100000207047CB09363301F07F0103EB410174
:10B72000034B084410441968FDF722BDC47500207E
:10B7300074770020F0B5441EE5B2042D83B017D80D
:10B74000562505FB04F5174E01F07F0405EB440474
:10B75000344404EBD1143034A779FF070BD5124BD6
:10B76000186810F0010001D000BE002003B0F0BD49
:10B77000002003B0F0BD1F4613460A460146705D27
:10B78000A579009745F00105A57100F0BDFB0028E3
:10B79000ECD1A37960F30003A371A37960F3820372
:10B7A000A371E3E7C4750020F0ED00E02DE9F04758
:10B7B000764DAF798F4284B091461E4604465BD0E9
:10B7C000E2234FF0000AA9718DF809108DF80830B6
:10B7D000ADF80CA0002E00F0B380012103AF0DF1F5
:10B7E000080800F01DFC41463A460223204600F0BE
:10B7F00045FC5146204600F013FC9DF80C30EB70E0
:10B800002223D9F800908DF80730002E3ED0204634
:10B81000012100F005FC3A460DF107010123204605
:10B8200000F02CFC9DF80C30EB70494608230022F8
:10B83000204600F023FC2046002100F0F1FB00260A
:10B84000102241F2F20320460121EA71ADF80830DE
:10B85000ADF80C6000F0E4FB3A4641460223204676
:10B8600000F00CFC3146204600F0DAFB9DF80C306D
:10B87000EB7004B0BDE8F087222303AF0DF1080898
:10B88000D9F800908DF80730002EC0D14FF0FF316D
:10B89000E86D01F04BFA3146204600F0FBFB2046F4
:10B8A000012100F0BDFB3A460DF1070101232046BE
:10B8B00000F0E4FB9DF80C30EB703246082349465B
:10B8C000204600F0DBFB3146204600F0A9FB204675
:10B8D000012100F0DFFB334632463146E86D00F0CF
:10B8E00009FE102241F2F2034FF0FF31E86DEA71D8
:10B8F000ADF80830ADF80C6001F018FA314620467A
:10B9000000F0C8FB2046012100F08AFB3A460223E2
:10B910004146204600F0B2FB3146204600F080FB55
:10B920002046012100F0B6FB334632463146E86D31
:10B9300000F0E0FD9DF80C30EB7004B0BDE8F0873E
:10B940004FF0FF31E86D01F0F1F93146204600F08B
:10B95000A1FB03AF204601210DF1080800F060FBB8
:10B960003A4602234146204600F088FB31462046F5
:10B9700000F056FB2046012100F08CFB3346324696
:10B980003146E86D00F0B6FD37E700BF787700205C
:10B990002DE9F04F4B781D070E4685B0904609788B
:10B9A000044662D1DA0600F14881B26812B1B28869
:10B9B000002A5AD1E24D03F02006AB7966F07F06EB
:10B9C0008B42F6B200F06481E2230027A9718DF862
:10B9D00009108DF80830ADF80C70B8F1000F00F0C8
:10B9E0006C82012120460DF10C090DF1080A00F0CE
:10B9F00017FB51464A460223204600F03FFB3946DA
:10BA0000204600F00DFB9DF80C30EB70F223EE7138
:10BA10008DF8096000268DF80830ADF80C60B8F19B
:10BA2000000F40F0D980E86D4FF0FF3101F07EF952
:10BA30004146204600F02EFB2046012100F0F0FA9E
:10BA40004A4602235146204600F018FB4146204654
:10BA500000F0E6FA2046012100F01CFB4346424676
:10BA60004146E86D00F046FD45E0B54D13F0200776
:10BA7000AA7946D1914240F0BE800DF10C090DF13A
:10BA8000080AB37813F0100F0CBF10222022EA230B
:10BA900000278DF809208DF80830ADF80C70B8F14A
:10BAA000000F00F0FA800121204600F0B9FA0223CD
:10BAB0004A465146204600F0E1FA3946204600F059
:10BAC000AFFA9DF80C30EB707378EB71F222012124
:10BAD00020468DF809308DF80820ADF80C7000F084
